{
  "contractName": "CNSSBase",
  "abi": [
    {
      "constant": true,
      "inputs": [
        {
          "name": "",
          "type": "uint256"
        }
      ],
      "name": "gayIndexToApproved",
      "outputs": [
        {
          "name": "",
          "type": "address"
        }
      ],
      "payable": false,
      "stateMutability": "view",
      "type": "function"
    },
    {
      "constant": true,
      "inputs": [],
      "name": "siringAuction",
      "outputs": [
        {
          "name": "",
          "type": "address"
        }
      ],
      "payable": false,
      "stateMutability": "view",
      "type": "function"
    },
    {
      "constant": false,
      "inputs": [],
      "name": "unpause",
      "outputs": [],
      "payable": false,
      "stateMutability": "nonpayable",
      "type": "function"
    },
    {
      "constant": true,
      "inputs": [
        {
          "name": "",
          "type": "uint256"
        }
      ],
      "name": "sireAllowedToAddress",
      "outputs": [
        {
          "name": "",
          "type": "address"
        }
      ],
      "payable": false,
      "stateMutability": "view",
      "type": "function"
    },
    {
      "constant": true,
      "inputs": [],
      "name": "paused",
      "outputs": [
        {
          "name": "",
          "type": "bool"
        }
      ],
      "payable": false,
      "stateMutability": "view",
      "type": "function"
    },
    {
      "constant": true,
      "inputs": [],
      "name": "secondsPerBlock",
      "outputs": [
        {
          "name": "",
          "type": "uint256"
        }
      ],
      "payable": false,
      "stateMutability": "view",
      "type": "function"
    },
    {
      "constant": true,
      "inputs": [
        {
          "name": "",
          "type": "uint256"
        }
      ],
      "name": "gayIndexToOwner",
      "outputs": [
        {
          "name": "",
          "type": "address"
        }
      ],
      "payable": false,
      "stateMutability": "view",
      "type": "function"
    },
    {
      "constant": false,
      "inputs": [],
      "name": "pause",
      "outputs": [],
      "payable": false,
      "stateMutability": "nonpayable",
      "type": "function"
    },
    {
      "constant": false,
      "inputs": [
        {
          "name": "_etenalAddress",
          "type": "address"
        }
      ],
      "name": "setEtenal",
      "outputs": [],
      "payable": false,
      "stateMutability": "nonpayable",
      "type": "function"
    },
    {
      "constant": true,
      "inputs": [
        {
          "name": "",
          "type": "uint256"
        }
      ],
      "name": "cooldowns",
      "outputs": [
        {
          "name": "",
          "type": "uint32"
        }
      ],
      "payable": false,
      "stateMutability": "view",
      "type": "function"
    },
    {
      "constant": true,
      "inputs": [],
      "name": "etenalAddress",
      "outputs": [
        {
          "name": "",
          "type": "address"
        }
      ],
      "payable": false,
      "stateMutability": "view",
      "type": "function"
    },
    {
      "constant": true,
      "inputs": [
        {
          "name": "",
          "type": "address"
        }
      ],
      "name": "ownershipTokenCount",
      "outputs": [
        {
          "name": "",
          "type": "uint256"
        }
      ],
      "payable": false,
      "stateMutability": "view",
      "type": "function"
    },
    {
      "constant": true,
      "inputs": [],
      "name": "saleAuction",
      "outputs": [
        {
          "name": "",
          "type": "address"
        }
      ],
      "payable": false,
      "stateMutability": "view",
      "type": "function"
    },
    {
      "anonymous": false,
      "inputs": [
        {
          "indexed": false,
          "name": "owner",
          "type": "address"
        },
        {
          "indexed": false,
          "name": "gayId",
          "type": "uint256"
        },
        {
          "indexed": false,
          "name": "matronId",
          "type": "uint256"
        },
        {
          "indexed": false,
          "name": "sireId",
          "type": "uint256"
        },
        {
          "indexed": false,
          "name": "genes",
          "type": "uint256"
        }
      ],
      "name": "Birth",
      "type": "event"
    },
    {
      "anonymous": false,
      "inputs": [
        {
          "indexed": false,
          "name": "from",
          "type": "address"
        },
        {
          "indexed": false,
          "name": "to",
          "type": "address"
        },
        {
          "indexed": false,
          "name": "tokenId",
          "type": "uint256"
        }
      ],
      "name": "Transfer",
      "type": "event"
    },
    {
      "anonymous": false,
      "inputs": [
        {
          "indexed": false,
          "name": "newContract",
          "type": "address"
        }
      ],
      "name": "ContractUpgrade",
      "type": "event"
    },
    {
      "constant": false,
      "inputs": [
        {
          "name": "secs",
          "type": "uint256"
        }
      ],
      "name": "setSecondsPerBlock",
      "outputs": [],
      "payable": false,
      "stateMutability": "nonpayable",
      "type": "function"
    }
  ],
  "bytecode": "0x608060405260008060146101000a81548160ff0219169083151502179055506101c060405190810160405280603c63ffffffff1663ffffffff168152602001607863ffffffff1663ffffffff16815260200161012c63ffffffff1663ffffffff16815260200161025863ffffffff1663ffffffff16815260200161070863ffffffff1663ffffffff168152602001610e1063ffffffff1663ffffffff168152602001611c2063ffffffff1663ffffffff16815260200161384063ffffffff1663ffffffff16815260200161708063ffffffff1663ffffffff16815260200161e10063ffffffff1663ffffffff1681526020016201518063ffffffff1663ffffffff1681526020016202a30063ffffffff1663ffffffff1681526020016205460063ffffffff1663ffffffff16815260200162093a8063ffffffff1663ffffffff16815250600190600e61015392919061016b565b50600f60035534801561016557600080fd5b50610241565b82600e6007016008900481019282156101fd5791602002820160005b838211156101cb57835183826101000a81548163ffffffff021916908363ffffffff1602179055509260200192600401602081600301049283019260010302610187565b80156101fb5782816101000a81549063ffffffff02191690556004016020816003010492830192600103026101cb565b505b50905061020a919061020e565b5090565b61023e91905b8082111561023a57600081816101000a81549063ffffffff021916905550600101610214565b5090565b90565b6108f7806102506000396000f3006080604052600436106100d0576000357c0100000000000000000000000000000000000000000000000000000000900463ffffffff168063162fd2df146100d557806321717ebf146101425780633f4ba83a1461019957806346116e6f146101b05780635663896e1461021d5780635c975abb1461024a5780637a7d4937146102795780637caed016146102a45780638456cb591461031157806387b93ebb146103285780639d6fac6f1461036b578063cbda5fcb146103b8578063cec21acb1461040f578063e6cbe35114610466575b600080fd5b3480156100e157600080fd5b50610100600480360381019080803590602001909291905050506104bd565b604051808273ffffffffffffffffffffffffffffffffffffffff1673ffffffffffffffffffffffffffffffffffffffff16815260200191505060405180910390f35b34801561014e57600080fd5b506101576104f0565b604051808273ffffffffffffffffffffffffffffffffffffffff1673ffffffffffffffffffffffffffffffffffffffff16815260200191505060405180910390f35b3480156101a557600080fd5b506101ae610516565b005b3480156101bc57600080fd5b506101db600480360381019080803590602001909291905050506105a8565b604051808273ffffffffffffffffffffffffffffffffffffffff1673ffffffffffffffffffffffffffffffffffffffff16815260200191505060405180910390f35b34801561022957600080fd5b50610248600480360381019080803590602001909291905050506105db565b005b34801561025657600080fd5b5061025f61067f565b604051808215151515815260200191505060405180910390f35b34801561028557600080fd5b5061028e610692565b6040518082815260200191505060405180910390f35b3480156102b057600080fd5b506102cf60048036038101908080359060200190929190505050610698565b604051808273ffffffffffffffffffffffffffffffffffffffff1673ffffffffffffffffffffffffffffffffffffffff16815260200191505060405180910390f35b34801561031d57600080fd5b506103266106cb565b005b34801561033457600080fd5b50610369600480360381019080803573ffffffffffffffffffffffffffffffffffffffff16906020019092919050505061075f565b005b34801561037757600080fd5b5061039660048036038101908080359060200190929190505050610839565b604051808263ffffffff1663ffffffff16815260200191505060405180910390f35b3480156103c457600080fd5b506103cd610868565b604051808273ffffffffffffffffffffffffffffffffffffffff1673ffffffffffffffffffffffffffffffffffffffff16815260200191505060405180910390f35b34801561041b57600080fd5b50610450600480360381019080803573ffffffffffffffffffffffffffffffffffffffff16906020019092919050505061088d565b6040518082815260200191505060405180910390f35b34801561047257600080fd5b5061047b6108a5565b604051808273ffffffffffffffffffffffffffffffffffffffff1673ffffffffffffffffffffffffffffffffffffffff16815260200191505060405180910390f35b60086020528060005260406000206000915054906101000a900473ffffffffffffffffffffffffffffffffffffffff1681565b600b60009054906101000a900473ffffffffffffffffffffffffffffffffffffffff1681565b6000809054906101000a900473ffffffffffffffffffffffffffffffffffffffff1673ffffffffffffffffffffffffffffffffffffffff163373ffffffffffffffffffffffffffffffffffffffff1614151561057157600080fd5b600060149054906101000a900460ff16151561058c57600080fd5b60008060146101000a81548160ff021916908315150217905550565b60096020528060005260406000206000915054906101000a900473ffffffffffffffffffffffffffffffffffffffff1681565b6000809054906101000a900473ffffffffffffffffffffffffffffffffffffffff1673ffffffffffffffffffffffffffffffffffffffff163373ffffffffffffffffffffffffffffffffffffffff1614151561063657600080fd5b60016000600e8110151561064657fe5b600891828204019190066004029054906101000a900463ffffffff1663ffffffff168110151561067557600080fd5b8060038190555050565b600060149054906101000a900460ff1681565b60035481565b60066020528060005260406000206000915054906101000a900473ffffffffffffffffffffffffffffffffffffffff1681565b6000809054906101000a900473ffffffffffffffffffffffffffffffffffffffff1673ffffffffffffffffffffffffffffffffffffffff163373ffffffffffffffffffffffffffffffffffffffff1614151561072657600080fd5b600060149054906101000a900460ff1615151561074257600080fd5b6001600060146101000a81548160ff021916908315150217905550565b6000809054906101000a900473ffffffffffffffffffffffffffffffffffffffff1673ffffffffffffffffffffffffffffffffffffffff163373ffffffffffffffffffffffffffffffffffffffff161415156107ba57600080fd5b600073ffffffffffffffffffffffffffffffffffffffff168173ffffffffffffffffffffffffffffffffffffffff16141515156107f657600080fd5b806000806101000a81548173ffffffffffffffffffffffffffffffffffffffff021916908373ffffffffffffffffffffffffffffffffffffffff16021790555050565b600181600e8110151561084857fe5b60089182820401919006600402915054906101000a900463ffffffff1681565b6000809054906101000a900473ffffffffffffffffffffffffffffffffffffffff1681565b60076020528060005260406000206000915090505481565b600a60009054906101000a900473ffffffffffffffffffffffffffffffffffffffff16815600a165627a7a72305820f459c01721cd1def839a4ed35e04fabc813e435e37c45b06493a8aaa2f34e5a20029",
  "source": "pragma solidity ^0.4.17;\n\nimport \"./CNSSAccessControl.sol\";\nimport \"./ClockAuction/ClockAuction.sol\";\nimport \"../node_modules/zeppelin-solidity/contracts/math/SafeMath.sol\";\nimport \"./ClockAuction/SaleClockAuction.sol\";\nimport \"./ClockAuction/SiringClockAuction.sol\";\n\n\ncontract CNSSBase is CNSSAccessControl {\n\n  using SafeMath for uint256;\n  using SafeMath32 for uint32;\n  using SafeMath16 for uint16;\n\n\n  event Birth(address owner, uint256 gayId, uint256 matronId, uint256 sireId, uint256 genes);\n\n  event Transfer(address from, address to, uint256 tokenId);\n\n  struct Gay{\n    uint256 genes;\n    uint64 birthTime;\n    uint64 cooldownEndBlock;\n    uint32 matronId;\n    uint32 sireId;\n    uint32 siringWithId;\n    uint16 cooldownIndex;\n    uint16 generation;\n  }\n\n  uint32[14] public cooldowns = [\n    uint32(1 minutes),\n    uint32(2 minutes),\n    uint32(5 minutes),\n    uint32(10 minutes),\n    uint32(30 minutes),\n    uint32(1 hours),\n    uint32(2 hours),\n    uint32(4 hours),\n    uint32(8 hours),\n    uint32(16 hours),\n    uint32(1 days),\n    uint32(2 days),\n    uint32(4 days),\n    uint32(7 days)\n  ];\n\n  uint256 public secondsPerBlock = 15;\n  uint256 newGayId;\n\n  Gay[] gays;\n\n  mapping (uint256 => address) public gayIndexToOwner;\n  mapping (address => uint256) public ownershipTokenCount;\n  mapping (uint256 => address) public gayIndexToApproved;\n  mapping (uint256 => address) public sireAllowedToAddress;\n\n  SaleClockAuction public saleAuction;\n  SiringClockAuction public siringAuction;\n\n  function _transfer(address _from, address _to, uint256 _tokenId) internal {\n    ownershipTokenCount[_to] = ownershipTokenCount[_to].add(1);\n    gayIndexToOwner[_tokenId] = _to;\n    \n    if (_from != address(0)){\n      ownershipTokenCount[_from] = ownershipTokenCount[_from].sub(1);\n      delete gayIndexToApproved[_tokenId];\n      delete sireAllowedToAddress[_tokenId];\n    }\n\n    emit Transfer(_from, _to, _tokenId);\n  }\n\n  function _createGay(\n        uint256 _matronId,\n        uint256 _sireId,\n        uint256 _generation,\n        uint256 _genes,\n        address _owner\n  )internal returns (uint256) {\n    require(_matronId == uint256(uint32(_matronId)));\n    require(_sireId == uint256(uint32(_sireId)));\n    require(_generation == uint256(uint16(_generation)));\n\n    uint16 cooldownIndex = uint16(_generation.div(2));\n    if (cooldownIndex > 13){\n      cooldownIndex = 13;\n    }\n\n    Gay memory _gay = Gay({\n      genes: _genes,\n      birthTime: uint64(now),\n      cooldownEndBlock: 0,\n      matronId: uint32(_matronId),\n      sireId: uint32(_sireId),\n      siringWithId: 0,\n      cooldownIndex: cooldownIndex,\n      generation: uint16(_generation)\n    });\n\n    newGayId = gays.push(_gay) - 1;\n\n    require(newGayId == uint256(uint32(newGayId)));\n\n    emit Birth(_owner, newGayId, uint256(_gay.matronId), uint256(_gay.sireId), _gay.genes);\n\n    _transfer(0, _owner, newGayId);\n\n    return newGayId;\n  }\n\n  function setSecondsPerBlock(uint256 secs) external onlyAdmin {\n    require(secs < cooldowns[0]);\n    secondsPerBlock = secs;\n  }\n}",
  "sourcePath": "/Users/etenal/Google Drive/Code/CryptoCNSS/contracts/CNSSBase.sol",
  "compiler": {
    "name": "solc",
    "version": "0.4.23+commit.124ca40d.Emscripten.clang"
  },
  "schemaVersion": "2.0.0",
  "updatedAt": "2018-04-30T15:17:18.849Z"
}