{
  "contractName": "CNSSAccessControl",
  "abi": [
    {
      "constant": true,
      "inputs": [],
      "name": "paused",
      "outputs": [
        {
          "name": "",
          "type": "bool"
        }
      ],
      "payable": false,
      "stateMutability": "view",
      "type": "function"
    },
    {
      "constant": true,
      "inputs": [],
      "name": "etenalAddress",
      "outputs": [
        {
          "name": "",
          "type": "address"
        }
      ],
      "payable": false,
      "stateMutability": "view",
      "type": "function"
    },
    {
      "anonymous": false,
      "inputs": [
        {
          "indexed": false,
          "name": "newContract",
          "type": "address"
        }
      ],
      "name": "ContractUpgrade",
      "type": "event"
    },
    {
      "constant": false,
      "inputs": [
        {
          "name": "_etenalAddress",
          "type": "address"
        }
      ],
      "name": "setEtenal",
      "outputs": [],
      "payable": false,
      "stateMutability": "nonpayable",
      "type": "function"
    },
    {
      "constant": false,
      "inputs": [],
      "name": "pause",
      "outputs": [],
      "payable": false,
      "stateMutability": "nonpayable",
      "type": "function"
    },
    {
      "constant": false,
      "inputs": [],
      "name": "unpause",
      "outputs": [],
      "payable": false,
      "stateMutability": "nonpayable",
      "type": "function"
    }
  ],
  "bytecode": "0x608060405260008060146101000a81548160ff02191690831515021790555034801561002a57600080fd5b506103cd8061003a6000396000f30060806040526004361061006d576000357c0100000000000000000000000000000000000000000000000000000000900463ffffffff1680633f4ba83a146100725780635c975abb146100895780638456cb59146100b857806387b93ebb146100cf578063cbda5fcb14610112575b600080fd5b34801561007e57600080fd5b50610087610169565b005b34801561009557600080fd5b5061009e6101fb565b604051808215151515815260200191505060405180910390f35b3480156100c457600080fd5b506100cd61020e565b005b3480156100db57600080fd5b50610110600480360381019080803573ffffffffffffffffffffffffffffffffffffffff1690602001909291905050506102a2565b005b34801561011e57600080fd5b5061012761037c565b604051808273ffffffffffffffffffffffffffffffffffffffff1673ffffffffffffffffffffffffffffffffffffffff16815260200191505060405180910390f35b6000809054906101000a900473ffffffffffffffffffffffffffffffffffffffff1673ffffffffffffffffffffffffffffffffffffffff163373ffffffffffffffffffffffffffffffffffffffff161415156101c457600080fd5b600060149054906101000a900460ff1615156101df57600080fd5b60008060146101000a81548160ff021916908315150217905550565b600060149054906101000a900460ff1681565b6000809054906101000a900473ffffffffffffffffffffffffffffffffffffffff1673ffffffffffffffffffffffffffffffffffffffff163373ffffffffffffffffffffffffffffffffffffffff1614151561026957600080fd5b600060149054906101000a900460ff1615151561028557600080fd5b6001600060146101000a81548160ff021916908315150217905550565b6000809054906101000a900473ffffffffffffffffffffffffffffffffffffffff1673ffffffffffffffffffffffffffffffffffffffff163373ffffffffffffffffffffffffffffffffffffffff161415156102fd57600080fd5b600073ffffffffffffffffffffffffffffffffffffffff168173ffffffffffffffffffffffffffffffffffffffff161415151561033957600080fd5b806000806101000a81548173ffffffffffffffffffffffffffffffffffffffff021916908373ffffffffffffffffffffffffffffffffffffffff16021790555050565b6000809054906101000a900473ffffffffffffffffffffffffffffffffffffffff16815600a165627a7a7230582097da8b4a4234541914966751435a3b8e087f748c9c15c97d4d938a69629b651c0029",
  "source": "pragma solidity ^0.4.17;\n\ncontract CNSSAccessControl {\n\n  event ContractUpgrade(address newContract);\n\n  address public etenalAddress;\n\n  bool public paused = false;\n\n  modifier onlyAdmin() {\n    require(\n      msg.sender == etenalAddress\n    );\n    _;\n  }\n\n  modifier onlyEtenal() {\n    require(msg.sender == etenalAddress);\n    _;\n  }\n\n  function setEtenal(address _etenalAddress) external onlyEtenal{\n    require(_etenalAddress != address(0));\n\n    etenalAddress = _etenalAddress;\n  }\n\n  modifier whenNotPaused() {\n    require(!paused);\n    _;\n  }\n\n  modifier whenPaused() {\n    require(paused);\n    _;\n  }\n\n  function pause() external onlyEtenal whenNotPaused {\n    paused = true;\n  }\n\n  function unpause() public onlyEtenal whenPaused {\n    paused = false;\n  }\n}",
  "sourcePath": "/Users/etenal/Google Drive/Code/CryptoCNSS/contracts/CNSSAccessControl.sol",
  "compiler": {
    "name": "solc",
    "version": "0.4.23+commit.124ca40d.Emscripten.clang"
  },
  "schemaVersion": "2.0.0",
  "updatedAt": "2018-04-30T15:17:18.849Z"
}